:1008C600EFD394077480948040037F0122120C3486
:1008D600FED394037480948040037F0222EF704419
:1008E600EE700B900001120C4DF452935294120CC0
:1008F600346401700B900001120C4D4293F4529433
:10090600120C34FE6402700A900001120C4D4293E0
:100916004294EE6403700D900001120C4DFEF452E9
:1009260093EE4294EF64017046120C34FE700B9005
:100936000001120C4DF452915292EE6401700B902C
:100946000001120C4D4291F45292120C3464027062
:100956000A900001120C4D42914292120C3464032B
:10096600700D900001120C4DFEF45291EE4292EF82
:1009760064027046120C34FE700B900001120C4D8E
:10098600F452955296EE6401700B900001120C4DD4
:100996004295F45296120C346402700A90000112C9
:1009A6000C4D42954296120C346403700D90000172
:1009B600120C4DFEF45295EE4296EF640370461209
:1009C6000C34FE700B900001120C4DF452B152B271
:1009D600EE6401700B900001120C4D42B1F452B25C
:1009E600120C346402700A900001120C4D42B1429E
:1009F600B2120C346403700D900001120C4DFEF41B
:100A060052B1EE42B2EF64047046120C34FE700B23
:100A1600900001120C4DF452B352B4EE6401700B07
:100A2600900001120C4D42B3F452B4120C3464021D
:100A3600700A900001120C4D42B342B4120C346499
:100A460003700D900001120C4DFEF452B3EE42B449
:100A5600EF64057046120C34FE700B900001120C08
:100A66004DF452C952CAEE6401700B900001120C8B
:100A76004D42C9F452CA120C346402700A90000145
:100A8600120C4D42C942CA120C346403700D900018
:100A960001120C4DFEF452C9EE42CAEF64067046CE
:100AA600120C34FE700B900001120C4DF452CB5216
:100AB600CCEE6401700B900001120C4D42CBF45247
:100AC600CC120C346402700A900001120C4D42CB19
:100AD60042CC120C346403700D900001120C4DFED2
:100AE600F452CBEE42CCEF64077049120C34FF7E11
:100AF60000700B900001120C4DF452E152E2EF64CB
:100B0600014E700B900001120C4D42E1F452E212BC
:100B16000C346402700A900001120C4D42E142E26C
:100B2600120C346403700D900001120C4DFFF45248
:070B3600E1EF42E27F002223
:100066007522FFE4F521FB7A0079217F020208C69A
:10004300E4F521F522752301F524F5257526A2751E
:0E0053002740752801FB7A007921FF020595F0
:100D6200752560752660752760752860E4F54E75F7
:100D72002907752AFF8510338511348512358513AD
:100D82003685143785153885163985173AF53B753A
:100D92004F55F55175440175450175460175470179
:100DA200755401755201FB7A0079217F020200A677
:10001E007510007511807512017513007514027537
:10002E001500751604751700120066120043120DA6
:05003E0062D2AF80FE5C
:03000B00020B3DA8
:100B3D00C0E0C0F0C083C082C0D075D000C000C07E
:100B4D0001C002C003C004C005C006C007200015C7
:100B5D000511E51170020510C394FFE510940740CF
:100B6D0019D2008015E511151170021510D3E5117C
:100B7D009400E51094005002C2002001150513E504
:100B8D001370020512C394FFE51294074019D201A8
:100B9D008015E513151370021512D3E5139400E5B6
:100BAD001294005002C2012002150515E5157002C0
:100BBD000514C394FFE51494074019D2028015E57E
:100BCD0015151570021514D3E5159400E514940050
:100BDD005002C2022003150517E51770020516C352
:100BED0094FFE51694074019D2038015E5171517E4
:100BFD0070021516D3E5179400E51694005002C245
:100C0D00037B007A0079087F02120CDDD007D00635
:100C1D00D005D004D003D002D001D000D0D0D082E6
:070C2D00D083D0F0D0E032CB
:03001B00020003DD
:0100030032CA
:0300630002000494
:0100040032C9
:03009B000200055B
:0100050032C8
:0300A30002000652
:0100060032C7
:10059500AD07EDD394047480948040037F0122ED70
:1005A500600302066AC28C900002120C4D64017051
:1005B50004D2A98002C2A9900001120C4DFED39469
:1005C500037480948040037F0222EEFF7E00700555
:1005D50053B7FDC2B9EF64014E700553B7FDD2B9EB
:1005E500EF64024E700543B702C2B9EF64034E7063
:1005F5000543B702D2B9120C34FEC3940374809438
:100605008040037F0222E58954FC4EF58990000362
:10061500120C4DFF7E0064017003538E7FEF4E7008
:1006250003438E80EF64024E7005438904800353B3
:1006350089FB900004120C4D64017005438F018005
:1006450003538FFE900005120CA5E5F0F58C900084
:1006550005120CA5F58A900007120C4D6401700275
:10066500D28C7F0022ED64016003020737C28E90B1
:100675000002120C4D64017004D2AB8002C2AB9033
:100685000001120C4DFED394037480948040037FC7
:100695000222EEFF7E00700553B7F7C2BBEF64017F
:1006A5004E700553B7F7D2BBEF64024E700543B7E2
:1006B50008C2BBEF64034E700543B708D2BB120CEA
:1006C50034FEC394037480948040037F0222EEC4F9
:1006D50054F0FFE58954CF4FF589900003120C4D76
:1006E500FF7E0064017003538EBFEF4E7003438E8F
:1006F50040EF64024E700543894080035389BF90E3
:100705000004120C4D64017005438F028003538F62
:10071500FD900005120CA5E5F0F58D900005120C75
:10072500A5F58B900007120C4D64017002D28E7FE7
:100735000022ED6402707C538EEF900002120C4D86
:100745006401700543AF04800353AFFB90000312AF
:100755000C4DFED394027480948040037F0222EEF8
:10076500FF7E0064017003538EFBEF4E7003438ED2
:1007750004EF64024E7005438E088003538EF79094
:100785000004120C4D64017005438F048003538FE0
:10079500FB900005120CA5E5F0F5D6900005120CAE
:1007A500A5F5D7900007120C4D64017003438E1018
:1007B5007F0022ED6403707C53D1F7900002120C88
:1007C5004D6401700543AF20800353AFDF900003F4
:1007D500120C4DFED394027480948040037F022254
:1007E500EEFF7E006401700353D1FDEF4E700343AD
:1007F500D102EF64024E700543D104800353D1FB4F
:10080500900004120C4D6401700543D1018003531F
:10081500D1FE900005120CA5E5F0F5D49000051267
:100825000CA5F5D5900007120C4D6401700343D15A
:10083500087F0022ED640460030208C353D17F9052
:100845000002120C4D6401700543AF40800353AFA5
:10085500BF900003120C4DFD7C00D394027480946C
:100865008040037F0222ED64014C700353D1DF9079
:100875000003120C4D700343D120900003120C4D60
:100885006402700543D140800353D1BF9000041228
:100895000C4D6401700543D110800353D1EF9000D6
:1008A50005120CA5FDACF0ECF5D2AF058FD3900089
:1008B50007120C4D6401700343D1807F00227F0233
:0108C5002210
:1000A600EF640160030203A643BA80900029120C94
:1000B6004DFD7C00D3940374809480502DED700622
:1000C60053EEFB53DFFBED64014C700653EEFB432E
:1000D600DF04ED64024C700643EE0453DFFBED646F
:1000E600034C700643EE0443DF0490002A120C4DC5
:1000F600FD7C00D3940374809480502DED700653DC
:10010600EEF753DFF7ED64014C700653EEF743DF6D
:1001160008ED64024C700643EE0853DFF7ED640306
:100126004C700643EE0843DF0890002B120C4DFD81
:100136007C00D3940374809480502DED700653EEAA
:10014600EF53DFEFED64014C700653EEEF43DF1023
:10015600ED64024C700643EE1053DFEFED64034C82
:10016600700643EE1043DF1090002C120C4DFD7C00
:1001760000D3940374809480502DED700653EEDF07
:1001860053DFDFED64014C700653EEDF43DF20EDF5
:1001960064024C700643EE2053DFDFED64034C70BF
:1001A6000643EE2043DF2090FECCE4F0A3F0120CD1
:1001B60034FE90FEC8E0548F4EF0900001120C4DB4
:1001C600FE90FEC9E0548F4EF0900002120C4DFED8
:1001D60090FECAE0548F4EF0900003120C4DFE9034
:1001E600FECBE0548F4EF0900027120C4D64019028
:1001F600FEC87006E04408F08004E054F7F0900072
:1002060028120C4D640190FEC87006E04404F0808C
:1002160004E054FBF090001B120C4D640190FECCE0
:100226007006E04401F08004E054FEF090001C12D9
:100236000C4D640190FECC7006E04404F08004E0AE
:1002460054FBF090001D120C4D640190FECC70061C
:10025600E04410F08004E054EFF090001E120C4DC4
:10026600640190FECC7006E04440F08004E054BF88
:10027600F090001F120C4D640190FECD7006E04414
:1002860001F08004E054FEF0900020120C4D640151
:1002960090FECD7006E04404F08004E054FBF0903C
:1002A6000021120C4D640190FECD7006E04410F062
:1002B6008004E054EFF0900022120C4D640190FE91
:1002C600CD7006E04440F08004E054BFF090000892
:1002D600120CA5FD90FED2E5F0F0A3EDF090000A19
:1002E600120CA5FD90FED5E5F0F0A3EDF090000C04
:1002F600120CA5FD90FED7E5F0F0A3EDF090000EF0
:10030600120CA5FD90FED9E5F0F0A3EDF0900010DB
:10031600120CA5FD90FEDBE5F0F0A3EDF090002FAA
:10032600120C4D90FEC17007E054FEFEF08005E011
:100336004401FEF090FEC1EEF0900030120C4D909C
:10034600FEB2F090002E120C4D90FEB1F090001A05
:10035600120C4D90FEDEF0900032120C4D640190AE
:10036600FEDD7006E04410F08004E054EFF09000EB
:1003760033120C4D640190FEDD7006E04480F0807F
:1003860004E0547FF0900031120C4D640190FEC0E1
:100396007007E04401F002058CE054FEF002058C83
:1003A600EF6402600302059243BA8090002D120C9E
:1003B6004DFF7E00D3940374809480502DEF700619
:1003C60053EEBF53DFBFEF64014E700653EEBF43DB
:1003D600DF40EF64024E700643EE4053DFBFEF642A
:1003E600034E700643EE4043DF4090FEECE4F0A37C
:1003F600F0900004120C4DFF90FEE8E0548F4FF091
:10040600900005120C4DFF90FEE9E0548F4FF090DE
:100416000006120C4DFF90FEEAE0548F4FF090005C
:1004260007120C4DFF90FEEBE0548F4FF090002723
:10043600120C4D640190FEE87006E04408F080045A
:10044600E054F7F0900028120C4D640190FEE8701D
:1004560006E04404F08004E054FBF0900023120C04
:100466004D640190FEEC7006E04401F08004E05417
:10047600FEF0900024120C4D640190FEEC7006E034
:100486004410F08004E054EFF0900025120C4D6407
:100496000190FEED7006E04401F08004E054FEF0A9
:1004A600900026120C4D640190FEED7006E044109B
:1004B600F08004E054EFF0900008120CA5FF90FEC7
:1004C600F2E5F0F0A3EFF0900012120CA5FF90FEFB
:1004D600F5E5F0F0A3EFF0900014120CA5FF90FEE6
:1004E600F7E5F0F0A3EFF0900016120CA5FF90FED2
:1004F600F9E5F0F0A3EFF0900018120CA5FF90FEBE
:10050600FBE5F0F0A3EFF090002F120C4D90FEC12A
:100516007007E054FEFFF08005E04401FFF090FE16
:10052600C1EFF0900030120C4D90FEB6F090002E08
:10053600120C4D90FEB5F090001A120C4D90FEFE76
:10054600F0900032120C4D640190FEFD7006E044FE
:1005560010F08004E054EFF0900033120C4D64016B
:1005660090FEFD7006E04480F08004E0547FF09039
:100576000031120C4D640190FEE07006E04401F07B
:0F0586008004E054FEF053BA7F7F00227F0222F0
:100CDD0043BA80EF64017039120C7AFF90FED5E5AE
:100CED00F0F0A3EFF0900002120CA5FF90FED7E5F7
:100CFD00F0F0A3EFF0900004120CA5FF90FED9E5E3
:100D0D00F0F0A3EFF0900006120CA5FF90FEDB8033
:100D1D003A900008120CA5FF90FEF5E5F0F0A3EF58
:100D2D00F090000A120CA5FF90FEF7E5F0F0A3EF8E
:100D3D00F090000C120CA5FF90FEF9E5F0F0A3EF7A
:100D4D00F090000E120CA5FF90FEFBE5F0F0A3EF66
:050D5D00F053BA7F22F3
:0300000002000EED
:0C000E00787FE4F6D8FD75815402001ED6
:100C3400BB010689828A83E0225002E722BBFE02BE
:090C4400E32289828A83E49322F1
:100C4D00BB010CE58229F582E5833AF583E022505C
:100C5D0006E92582F8E622BBFE06E92582F8E222A6
:0D0C6D00E58229F582E5833AF583E49322C0
:100C7A00BB010A89828A83E0F5F0A3E02250068745
:100C8A00F009E71922BBFE07E3F5F009E319228907
:0B0C9A00828A83E493F5F0740193223A
:100CA500BB0110E58229F582E5833AF583E0F5F08D
:100CB500A3E0225009E92582F886F008E622BBFE6A
:100CC5000AE92582F8E2F5F008E222E5832AF583B0
:080CD500E993F5F0A3E9932275
:00000001FF
