:1006FA0073746172747570006865616C74687900EE
:10070A0074696D656F7574006D6F6E69746F726967
:10071A006E670061737365727400776169742D7214
:10072A0065636F76657279007265736574206865B2
:10073A00617274626561743D002073746174653D11
:10074A00002065646765733D00206167655F6D73AE
:10075A003D00207365656E3D00205035343D002014
:10076A005035353D00206F75747075743D006869A9
:10077A0067682D7A00207265736574733D0020776F
:10078A0064743D6F6E0D0A0041505F5245534554E3
:10079A00206173736572740D0A0041505F524553AC
:1007AA0045542072656C656173650D0A000D0A5324
:1007BA0054433847314B303820726573657420666C
:1007CA0069726D776172652076312E302E360D0A88
:1007DA00005035343D4350555F434845434B20490B
:1007EA004E54322066616C6C696E67206564676579
:1007FA000D0A005035353D41502D52455345542080
:10080A00636F6E74726F6C6C65642070756C73655F
:10081A002C205744543D4F4E0D0A006772616365A0
:10082A003D33303030306D732074696D656F757487
:10083A003D353030306D732070756C73653D3230E4
:10084A00306D73207764743D313238780D0A004D6B
:10085A004E5420454E5445520D0A004D4E542045E3
:10086A005849540D0A004D4E542045585049524596
:10087A00440D0A004D4E54206D6F64653D6D6169EB
:10088A006E74656E616E63652065646765733D00AD
:03089A000D0A0044
:101222005389FC438E80758CA2758A40C28DD2A9E7
:03123200D28C2239
:0A125F0043C92053CADF43C8202210
:0D12460012125F53C8DF53C9DF43CA2022D4
:10119D0043C91053CAEF43C81012125F43B1015334
:0C11AD00B2FE53B1FD43B20243B0022277
:04126F0075C12622FD
:0412730043C1102241
:1011B900A2AFE433C2AFAF60AE5FAD5EAC5D8F335B
:0A11C9008E328D318C3024FF92AF7E
:0111D30022F9
:060FCB008B308A318932EF
:100FD100A2AFE433F536C2AFAF60AE5FAD5EAC5DDC
:100FE100AB33AA34A9351203B7A832AC31AD307B8B
:100FF100007A0079627E007F0D120126E53624FF1A
:0210010092AFAC
:0110030022CA
:06000E008B308A318932BB
:10001400A2AFE433F53AC2AF7B007A007958AF3926
:10002400AE38AD37AC3612089DAB30AA31A932EFE9
:100034001201927B007A0079581211D4AB33AA349E
:0C004400A935EF120192E53A24FF92AFBB
:01005000228D
:081004008F338E328D318C30E8
:10100C00A2AFE433F534C2AF7B007A0079621210E0
:10101C003B7B007A00794FAF33AE32AD31AC30123E
:0E102C0010A0E4F56112125FE53424FF92AFCC
:01103A002293
:10120900EF70077BFF7A0679FA227BFFBF01057A27
:09121900077902227A07790A2202
:10115C00EF70077BFF7A0679FA22BF01077BFF7AD3
:10116C00077912227BFFBF02057A07791D227A07C5
:03117C00792422B1
:0E0BB6008F368E358D348C338B308A318932F8
:100BC400E4754230754175F540F53F7546887545C5
:100BD40013F544F543120EB88F377BFF7A07793249
:100BE4001210EEAF371212091210EE7BFF7A07795A
:100BF400431210EEAF4F12115C1210EE7BFF7A0716
:100C0400794B1210EEAB30AA31A9329000081203CE
:100C140087120D627BFF7A0779531210EEAB30AA6C
:100C240031A9329000041203F5C3E5369BFFE53584
:100C34009AFEE53499FDE53398FC120D627BFF7A48
:100C440007795C1210EEAB30AA31A93290000C1275
:100C5400016560047F3180027F301200037BFF7ADC
:100C64000779631210EE30CC047F3180027F30129A
:100C740000037BFF7A0779691210EE30CD047F31CF
:100C840080027F301200037BFF7A07796F1210EE27
:100C9400E5617BFF60067A07791D80047A0779781D
:100CA4001210EE7BFF7A07797F1210EEAF57AE5623
:100CB400AD55AC54120D627BFF7A0779880210EEB1
:1010C900EF6561601FEF6005121246800312125F1F
:1010D9008F61EF7BFF60067A07799280047A07793E
:0510E900A41210EE222C
:03000B00020F558C
:100F5500C0E0C0D075D000C004C005C006C007758C
:100F65008CA2758A40AF60AE5FAD5EAC5DEF2401CB
:100F7500F560E43EF55FE43DF55EE43CF55DD007E4
:0B0F8500D006D005D004D0D0D0E03260
:03005300020E5644
:100E5600C0E0C0F0C083C082C0D075D000C000C062
:0D0E660001C002C003C004C005C006C007E3
:100E7300AF60AE5FAD5EAC5D8F0B8E0A8D098C08E3
:100E83007B007A007962120F197B007A007958AFE0
:0A0E93000BAE0AAD09AC0812053AD7
:100E9D00D007D006D005D004D003D002D001D000A9
:0B0EAD00D0D0D082D083D0F0D0E03253
:100DEB0012119D120F901212227B007A0079627FF2
:100DFB00007E007D007C0012103B7B007A00794F57
:100E0B007F007E007D007C001210A07B007A0079B1
:100E1B00587F007E007D007C00121113E4F56143C6
:100E2B008F1012126FD2AF7BFF7A0779B71210EEC9
:100E3B007BFF7A0779DB1210EE7BFF7A0779FD12C5
:0B0E4B0010EE7BFF7A0879250210EE04
:100A35001211B98F1B8E1A8D198C187533007534E8
:100A45000075351C7B007A007920120FCB753300B9
:100A550075340075352F851F39851E38851D3785F9
:100A65001C367B007A00792E12000EE52EB4010BA0
:100A75007BFF7A0879591210EE8026E52EB402081C
:100A85007BFF7A087965800BE52EB403147BFF7A2A
:100A95000879701210EEAF1FAE1EAD1DAC1C121002
:100AA50004E52E64026005E52EB403051212738079
:100AB5008AE52F6401705DE5616005E4FF1210C9E8
:100AC500121273C3E51F951BFFE51E951AFEE51D62
:100AD5009519FDE51C9518FCE47BE87A03F9F8D334
:100AE5001203434003020A40851F1B851E1A851DFC
:100AF50019851C187BFF7A08797E1210EEAF2BAE94
:100B05002AAD29AC28120D627BFF7A08799A12105A
:100B1500EE020A407B007A007920E4754230754187
:100B250075F540F53F754688754513F544F543AFB2
:100B35001FAE1EAD1DAC1C120EB88F2D7B007A00AA
:100B4500794F851F37851E36851D35851C34E4751F
:100B55003BC8F53AF539F538AD2D120CC47B007A52
:100B650000794F1212351210C9121273C3E51F9581
:100B75001BFFE51E951AFEE51D9519FDE51C95184B
:100B8500FCE47BE87A03F9F8D31203434003020A35
:100B950040851F1B851E1A851D19851C187B007A2B
:100BA500007920AF1FAE1EAD1DAC1C120BB6020A9C
:010BB50040FF
:06126900120DEB020A3534
:101072008F4E8E4D8D4C8C4BAF3EAE3DAD3CAC3B5E
:101082008F4A8E498D488C47C3E54A954EFFE54904
:0E109200954DFEE548954CFDE547954BFC223B
:10103B008F388E378D368C35E94A602AAF38AE370C
:10104B00AD36AC351203B7AF38AE37AD36AC3590E5
:10105B0000041203D1900008120425000000009038
:07106B00000CE41201A422B5
:100F19008F0F8E0E8D0D8C0CE94A602FAF0FAE0E20
:100F2900AD0DAC0C9000041203D190000812038798
:100F3900EF2401FFE43EFEE43DFDE43CFC900008A3
:0C0F49001203D190000C74011201A422CC
:100EB8008F3E8E3D8D3C8C3B8B388A39893AAE0209
:100EC800AF01EF4E70037F0222AB38AA39A93A125C
:100ED8000367121072AB42AA41A940A83FD312037C
:100EE8004340037F0022AB38AA39A93A90000C127C
:100EF80001656017900004120387121072AB46AAAE
:100F080045A944A843D312034350037F02227F011B
:010F180022B6
:100F900053A23F759840C299E4751B8F751AFDF5F1
:100FA00019F518C28E538EFE5389BF5389CF438ED5
:100FB00040AF1BAE1AAD19AC1878081203548F8DD0
:0A0FC000851B8BC2AB538FFDD28E50
:010FCA002204
:080003008F993099FDC299228A
:1010EE008B388A39893AAB38AA39A93A12014C6041
:1010FE0013053AE53A7002053914F912014CFF1244
:05110E00000380E22255
:080D62008F3B8E3A8D398C386D
:100D6A00E4F546FFFEFDFCAB3BAA3AA939A838C315
:100D7A0012034370057F30020003E4FFFEFDFCAB63
:100D8A003BAA3AA939A838C31203436041E546C3CE
:100D9A00940A503AE47B0AFAF9F8AF3BAE3AAD3915
:100DAA00AC381202B1EB2430FFAE460546743C2E35
:100DBA00F8A607AF3BAE3AAD39AC38E47B0AFAF98C
:100DCA00F81202B18F3B8E3A8D398C3880ACE546E9
:100DDA00600E1546743C2546F8E6FF12000380EEC5
:010DEA0022E6
:10117F008F3F8E3E8D3D8C3CC3E53F9543FFE53E53
:0E118F009542FEE53D9541FDE53C9540FC2274
:1011380074021201929000011203D190000512036B
:1011480087EF2401FFE43EFEE43DFDE43CFC900013
:04115800050203D1B8
:1010A0008F388E378D368C35E94A601CE4120192F8
:1010B000AF38AE37AD36AC359000011203D1900099
:0910C000051204250000000022C5
:100CC4008D338B308A318932AE02AF01EF4E70031F
:100CD400020D61AB30AA31A93212014C700FE53319
:100CE400B401028073E533640270728012AB30AADF
:100CF40031A93212014CB40111E5336402705EAFC4
:100D040037AE36AD35AC34021138AB30AA31A93226
:100D140012014CB402319000011203878F438E42BA
:100D24008D418C40AF37AE36AD35AC3412117FAB4C
:100D34003BAA3AA939A838D31203435020AB30AAAE
:100D440031A93274038013AB30AA31A93212014C99
:0E0D5400B4030AE533B40105740112019222C2
:10123500E94A600A12014CB402047F0180027F0072
:011245002286
:0611EF00AB3BAA3CA93D48
:1011F500900004120165FF5307FC5307C7900004D4
:04120500EF0201A44F
:101113008F1B8E1A8D198C18E94A6018E51A851BE6
:10112300F0120229900002E4F5F012024890000444
:05113300E41201A422FA
:0E053A008F128E118D108C0F8B0C8A0D890E76
:10054800AE02AF01EF4E70030206F9AB0CAA0DA97B
:100558000E900004120165F5151313543F20E011A5
:10056800E5118512F0120229E51554FB4404020630
:10057800EBAE11AF12AB0CAA0DA90E1201C6FDAC61
:10058800F0C3EF9DF514EE9CF513EE8FF0120229DF
:10059800E5155403F516701EAE13AF14FCFD7BEE83
:1005A8007A02F9F8D312034340030206F9E5155419
:1005B800FC44010206EBE5166401702DAE13AF147E
:1005C800FCFD7B3CFAF9F8D31203435044AE13AF59
:1005D80014E4FCFD7B96F8C312034350030206980B
:1005E800E51554FC44020206EBE5166402703DAEC4
:1005F80013AF14FCFD7BF0FAF9F8D3120343501142
:10060800AE13AF14E4FCFD7B680AF8C31203435031
:1006180002807DE51554FC4403F5155315C7AB0C52
:10062800AA0DA90E900004E5150206F6E5151313A8
:10063800135407F517AE13AF14E4FCFD7BF47A01ED
:10064800F9F8D31203435050E517B4031CE51554C9
:10065800BF4440F515547F4480F515AB0CAA0DA98D
:100668000E9000041201A48068E517B40422531503
:10067800BFE515547F4480F515AB0CAA0DA90E9063
:1006880000041201A4900002E4F5F012024880412F
:10069800AB0CAA0DA90E8039AE13AF14E4FCFD7B98
:1006A8003CFAF9F8D31203435010AE13AF14E4FC2C
:1006B800FD7B96F8C31203435008AB0CAA0DA90E94
:1006C800800F0517E517D394044009AB0CAA0DA9B0
:1006D8000E0211F5E517540733333354F8FFE515C7
:1006E80054C74FF515AB0CAA0DA90E9000041201C2
:0106F800A45D
:0106F90022DE
:0E089D008F418E408D3F8C3E8B3B8A3C893DC7
:1008AB00AE02AF01EF4E7002FF22AB3BAA3CA93D5B
:1008BB00900004120165F542C413135401F545E58C
:1008CB0042C4131313540130E03753427F9000049A
:1008DB00E5421201A4E5456025AF41AE40AD3FAC0A
:1008EB003E7808120354EF2478FFEE341BAB3BAA7F
:1008FB003CA93D9000028FF01202487F01227F023B
:10090B0022E545604CAB3BAA3CA93D90000212018D
:10091B00F1FBAAF0AF41AE40AD3FAC3E78081203FD
:10092B0054C3EF9BEE9AC3948050047F0180027FE7
:10093B0000EF601D5342BFAB3BAA3CA93D900004A6
:10094B00E5421201A4900002E4F5F01202487F0385
:10095B0022E5421313543F20E0037F0022E542546B
:10096B0003F54364036003020A08AB3BAA3CA93DB1
:10097B001201C6FDC3E5419DFFE54095F0FEE4FC89
:10098B00FD7BF47A01F9F8D31203434003020A32D8
:10099B00E5421313135407F54464037036E54254D0
:1009AB00BF4440F542AB3BAA3CA93D900004120169
:1009BB00A4AF41AE40AD3FAC3E7808120354EF24D8
:1009CB0078FFEE341B9000028FF01202481211F5E3
:1009DB007F0122E5446404704BE545601A5342BF26
:1009EB00AB3BAA3CA93D900004E5421201A4900048
:1009FB0002E4F5F01202481211EF7F0222E5436088
:100A0B0026AB3BAA3CA93D1201C6FDC3E5419DFFA8
:100A1B00E54095F0FEE4FCFD7B587A02F9F8D31221
:090A2B00034350031211EF7F0098
:010A3400229F
:1011D400E94A7002FF22900004120165C4131354FB
:0B11E4000330E0047F0180027F002246
:0300000002125396
:0C125300787FE4F6D8FD75816E02126908
:10005600E709F608DFFA8046E709F208DFFA803E8C
:1000660088828C83E709F0A3DFFA8032E309F60879
:10007600DFFA8078E309F208DFFA807088828C83E1
:10008600E309F0A3DFFA806489828A83E0A3F60895
:10009600DFFA805889828A83E0A3F208DFFA804C6F
:1000A60080D280FA80C680D4806980F28033801046
:1000B60080A680EA809A80A880DA80E280CA8033AF
:1000C60089828A83ECFAE493A3C8C582C8CCC58327
:1000D600CCF0A3C8C582C8CCC583CCDFE9DEE780F7
:1000E6000D89828A83E493A3F608DFF9ECFAA9F076
:1000F600EDFB2289828A83ECFAE0A3C8C582C8CCCC
:10010600C583CCF0A3C8C582C8CCC583CCDFEADEE4
:10011600E880DB89828A83E493A3F208DFF980CC46
:1001260088F0EF60010E4E60C388F0ED2402B4043F
:100136000050B9F582EB2402B4040050AF232345E6
:0601460082239000A67365
:10014C00BB010689828A83E0225002E722BBFE02B1
:09015C00E32289828A83E49322E4
:10016500BB010CE58229F582E5833AF583E022504F
:1001750006E92582F8E622BBFE06E92582F8E22299
:0D018500E58229F582E5833AF583E49322B3
:10019200BB010689828A83F0225002F722BBFE014C
:0201A200F32246
:1001A400F8BB010DE58229F582E5833AF583E8F091
:1001B400225006E92582C8F622BBFE05E92582C83D
:0201C400F22225
:1001C600BB010A89828A83E0F5F0A3E02250068704
:1001D600F009E71922BBFE07E3F5F009E3192289C6
:0B01E600828A83E493F5F074019322F9
:1001F100BB0110E58229F582E5833AF583E0F5F04C
:10020100A3E0225009E92582F886F008E622BBFE28
:100211000AE92582F8E2F5F008E222E5832AF5836E
:08022100E993F5F0A3E9932233
:10022900BB010A89828A83F0E5F0A3F0225006F720
:0F02390009A7F01922BBFE06F3E5F009F319221D
:10024800F8BB0111E58229F582E5833AF583E8F0E8
:10025800E5F0A3F0225009E92582C8F608A6F022A5
:0D026800BBFE09E92582C8F2E5F008F2228C
:1002750075F008758200EF2FFFEE33FECD33CDCC40
:1002850033CCC58233C5829BED9AEC99E5829840C3
:100295000CF582EE9BFEED9AFDEC99FC0FD5F0D6A0
:1002A500E4CEFBE4CDFAE4CCF9A88222B800C1B9CA
:1002B5000059BA002DEC8BF084CFCECDFCE5F0CB08
:1002C500F97818EF2FFFEE33FEED33FDEC33FCEB41
:1002D50033FB10D703994004EB99FB0FD8E5E4F9FC
:1002E500FA227818EF2FFFEE33FEED33FDEC33FCE9
:1002F500C933C910D7059BE99A4007EC9BFCE99ADD
:10030500F90FD8E0E4C9FAE4CCFB2275F010EF2F21
:10031500FFEE33FEED33FDCC33CCC833C810D70721
:100325009BEC9AE899400AED9BFDEC9AFCE899F85C
:0E0335000FD5F0DAE4CDFBE4CCFAE4C8F922EF
:10034300EB9FF5F0EA9E42F0E99D42F0E89C45F010
:010353002287
:10035400E8600FECC313FCED13FDEE13FEEF13FF87
:03036400D8F122AB
:10036700BB010789828A830204555005E9F8020414
:1003770049BBFE05E9F802046189828A8302046D9C
:10038700BB010DE58229F582E5833AF58302045521
:100397005007E92582F8020449BBFE07E92582F8E0
:1003A700020461E58229F582E5833AF58302046D4B
:1003B700BB010789828A830204BF5005E9F802045A
:0A03C700B3BBFE05E9F80204CB22E7
:1003D100BB010DE58229F582E5833AF5830204BF6D
:1003E1005007E92582F80204B3BBFE07E92582F82C
:0403F1000204CB2215
:1003F500BB010DE58229F582E5833AF58302048A7E
:100405005007E92582F802047DBBFE07E92582F83D
:10041500020496E58229F582E5833AF5830204A371
:10042500BB010DE58229F582E5833AF5830204F0E7
:100435005007E92582F80204D7BBFE07E92582F8B3
:040445000205212269
:0C044900E6FC08E6FD08E6FE08E6FF22DF
:0C045500E0FCA3E0FDA3E0FEA3E0FF221A
:0C046100E2FC08E2FD08E2FE08E2FF22D7
:10046D00E493FC740193FD740293FE740393FF22D5
:0D047D00E6FB08E6F908E6FA08E6CBF822EF
:0C048A00E0F8A3E0F9A3E0FAA3E0FB22F5
:0D049600E2FB08E2F908E2FA08E2CBF822E6
:1004A300E493F8740193F9740293FA740393FB22AF
:0C04B300ECF608EDF608EEF608EFF62275
:0C04BF00ECF0A3EDF0A3EEF0A3EFF022B0
:0C04CB00ECF208EDF208EEF208EFF2226D
:1004D700D083D082E493F608740193F608740293EC
:0904E700F608740393F674047323
:1004F000A8828583F0D083D08212050712050712E7
:100500000507120507E473E493A3C583C5F0C5830B
:10051000C8C582C8F0A3C583C5F0C583C8C582C855
:0105200022B8
:10052100D083D082E493F208740193F208740293A9
:09053100F208740393F2740473E0
:00000001FF
