:10001E003F065B4F666D7D077F6F777C395E79712A
:10002E000040761E7038375C733E783D6750376EF1
:10003E00BF86DBCFE6EDFD87FFEF46010204081019
:10004E0020408000010200030000000400000000B8
:03005E000000009F
:100A73007522FFE4F521FB7A007921FF1203F77554
:100A830022FFE4F521FB7A0079217F011203F77538
:100A930022FFE4F521FB7A0079217F061203F77523
:0F0AA30022FFE4F521FB7A0079217F070203F798
:100B5100E4F521F522752301F524F5257526A27505
:0E0B61002740752801FB7A007921FF0200C6AB
:1000A600752301752201E4F525F524752110F52C3B
:0800B600FB7A00792102079199
:10066E00120A73120B511200A6D2AFE4F51BFFEF64
:10067E00C39408748094805009740A2FF876100F72
:10068E0080ED120A31C2D5C3E508943C7480948083
:10069E004002D2D5C3E512943C748094804002D2BD
:1006AE00D5C3E5159418748094804002D2D530D508
:1006BE000BE4F508F51275150C12099D1209EA7571
:1006CE000C11750F11E4F518F513F514F517F51651
:1006DE00F5093000FDC200051AE51A70020519C3AE
:1006EE0094E8E5199403400BE4F519F51A120A3152
:1006FE001209EA0509C3E509943274809480400614
:10070E00E4F509120927AF13EF60C76411701605DF
:10071E0015C3E5159418748094804003E4F5151202
:10072E00099D1209EAE513641270161515C3E51535
:10073E00941874809480400375151712099D120940
:10074E00EAE51364137018F5080512C3E512943C1C
:10075E00748094804003E4F51212099D1209EAE5B3
:10076E001364147018F5081512C3E512943C7480C6
:10077E009480400375123B12099D1209EAE4F513A9
:03078E000206E080
:1009EA00C3E515940A74809480400AE51575F00AE7
:1009FA0084F50A8003750A10E51575F00A8485F0F6
:100A0A000B750C11E51275F00A84F50DE51275F0F7
:100A1A000A8485F00EE50875F00A84F510E5087574
:070A2A00F00A8485F011229F
:100A31007B007A0079217528037F02120066E52187
:100A4100C4540775F00AA4FFE521540F2FF508E5FA
:100A510022C4540775F00AA4FFE522540F2FF512A2
:100A6100E523C4540375F00AA4FFE523540F2FF5C1
:010A7100156F
:010A72002261
:10099D00E50875F00A84C454F0FFE50875F00A8483
:1009AD00E5F02FF521E51275F00A84C454F0FFE54A
:1009BD001275F00A84E5F02FF522E51575F00A841D
:1009CD00C454F0FFE51575F00A84E5F02FF5237B8F
:0D09DD00007A0079217528037F02020B26A5
:040003007F3CDFFE61
:0100070022D6
:10092700AE177580F0120003E58054F0F517758057
:100937000F120003E580540F42176317FFEE651788
:100947007050AE14851714E5146044C2D5EE7004D8
:10095700D2D58016EEB514120516E516C394147495
:100967008094804005751612D2D530D525E514C47C
:10097700540F90005193FE6019E514540F93FF60D4
:1009870011EE25E025E0FEEF2E240CF5138003E49D
:05099700F5167580FF5C
:01099C002238
:100AEF00C37407951BFFE49400FE74492FF58274BD
:100AFF00003EF583E493F4F5F8740A251BF8E690AD
:100B0F00001E93F4F5E8051BC3E51B94087480944D
:070B1F00804003E4F51B22F6
:1003F700EFD394077480948040037F0122120897FB
:10040700FED394037480948040037F0222EF7044EC
:10041700EE700B9000011208B0F452935294120838
:10042700976401700B9000011208B04293F4529444
:10043700120897FE6402700A9000011208B04293F6
:100447004294EE6403700D9000011208B0FEF4525E
:1004570093EE4294EF64017046120897FE700B907A
:1004670000011208B0F452915292EE6401700B90A1
:1004770000011208B04291F4529212089764027078
:100487000A9000011208B042914292120897640341
:10049700700D9000011208B0FEF45291EE4292EFF7
:1004A70064027046120897FE700B9000011208B0A4
:1004B700F452955296EE6401700B9000011208B049
:1004C7004295F452961208976402700A900001123E
:1004D70008B0429542961208976403700D90000188
:1004E7001208B0FEF45295EE4296EF64037046127E
:1004F7000897FE700B9000011208B0F452B152B287
:10050700EE6401700B9000011208B042B1F452B2D0
:100517001208976402700A9000011208B042B142B3
:10052700B21208976403700D9000011208B0FEF430
:1005370052B1EE42B2EF64047046120897FE700B98
:100547009000011208B0F452B352B4EE6401700B7C
:100557009000011208B042B3F452B4120897640233
:10056700700A9000011208B042B342B412089764AF
:1005770003700D9000011208B0FEF452B3EE42B4BE
:10058700EF64057046120897FE700B900001120881
:10059700B0F452C952CAEE6401700B900001120800
:1005A700B042C9F452CA1208976402700A90000157
:1005B7001208B042C942CA1208976403700D90002E
:1005C700011208B0FEF452C9EE42CAEF6406704643
:1005D700120897FE700B9000011208B0F452CB522C
:1005E700CCEE6401700B9000011208B042CBF452BC
:1005F700CC1208976402700A9000011208B042CB2F
:1006070042CC1208976403700D9000011208B0FEE7
:10061700F452CBEE42CCEF64077049120897FF7E85
:1006270000700B9000011208B0F452E152E2EF643F
:10063700014E700B9000011208B042E1F452E21231
:1006470008976402700A9000011208B042E142E282
:100657001208976403700D9000011208B0FFF4525E
:07066700E1EF42E27F0022F7
:1007910043BA809000021208B06401704290FE805A
:1007A100E04440F090FE82E4F09000031208B09023
:1007B100FE817006E0547FF08004E04480F012086E
:1007C10097543FFF90FE80E054C04FF09000041218
:1007D10008B0640190FE88700302086C02086690FC
:1007E100FE80E054BFF090FE84E4F0900005120812
:1007F100B0640190FE837006E04440F08004E05450
:10080100BFF09000061208B0640190FE837006E00C
:100811004420F08004E054DFF09000071208B06437
:100821000190FE837006E04410F08004E054EFF084
:100831009000081208B0640190FE837006E044083D
:10084100F08004E054F7F09000091208B025E0FFB1
:1008510090FE85E054014FF090000A1208B0640147
:1008610090FE857006E054FEF08004E04401F090B3
:10087100000B1208B0FFE5BA54CF4FF5BA90000152
:100881001208B090FE807006E0547FF08004E044CE
:0608910080F053BA7F2243
:0C000E0090FE82E030E6F9E054BFF022E2
:090BE60090FE817401F002000E82
:0E0BBE0090FE86EFF090FE817402F002000EB1
:100B6F00AE0743BA80120BE67FA2120BBE120B84A4
:050B7F00AF06120BBEE1
:090B840090FE817403F002000EE2
:0F0BA00090FE817404F012000E90FE87E0FF2299
:0E0BCC0090FE82E4F090FE817405F002000EAF
:0F0BAF0090FE827401F090FE817405F002000E3A
:090BEF0090FE817406F002000E74
:100B26008B258A268927120B6FAB250527E527AA71
:100B3600267002052614F9120897FF120BBE120B37
:0B0B460084D528E5120BEF53BA7F2284
:10006600120B6F120BE67FA3120BBE120B84120B40
:10007600A0EF1208DD740129F9E43AFAE5286401D3
:100086006003120BCCD528E6120BAF120BEF53BA56
:020096007F22C7
:0300C300020B8DA0
:070B8D00C0D075D000C007C5
:070B9400AFBA43BA808FBA2B
:050B9B00D007D0D032AC
:03000B00020AB234
:100AB200C0E0C0F0C083C082C0D075D000C000C00A
:100AC20001C002C003C004C005C006C007120AEF7D
:100AD200D200D007D006D005D004D003D002D00176
:0D0AE200D000D0D0D082D083D0F0D0E03250
:03001B00020008D8
:0100080032C5
:030063000200098F
:0100090032C4
:03009B0002000A56
:01000A0032C3
:0300A30002001A3E
:01001A0032B3
:1000C600AD07EDD394047480948040037F0122ED44
:1000D600600302019BC28C9000021208B06401709A
:1000E60004D2A98002C2A99000011208B0FED394DE
:1000F600037480948040037F0222EEFF7E00700529
:1001060053B7FDC2B9EF64014E700553B7FDD2B9BE
:10011600EF64024E700543B702C2B9EF64034E7036
:100126000543B702D2B9120897FEC39403748094AC
:100136008040037F0222E58954FC4EF58990000336
:100146001208B0FF7E0064017003538E7FEF4E707D
:1001560003438E80EF64024E700543890480035387
:1001660089FB9000041208B064017005438F01807A
:1001760003538FFE9000051208EFE5F0F58C900012
:10018600051208EFF58A9000071208B064017002A4
:10019600D28C7F0022ED64016003020268C28E9059
:1001A60000021208B064017004D2AB8002C2AB90A8
:1001B60000011208B0FED394037480948040037F3C
:1001C6000222EEFF7E00700553B7F7C2BBEF640153
:1001D6004E700553B7F7D2BBEF64024E700543B7B6
:1001E60008C2BBEF64034E700543B708D2BB1208C2
:1001F60097FEC394037480948040037F0222EEC46A
:1002060054F0FFE58954CF4FF5899000031208B0EA
:10021600FF7E0064017003538EBFEF4E7003438E62
:1002260040EF64024E700543894080035389BF90B6
:1002360000041208B064017005438F028003538FD7
:10024600FD9000051208EFE5F0F58D900005120807
:10025600EFF58B9000071208B064017002D28E7F12
:100266000022ED6402707C538EEF9000021208B0FB
:100276006401700543AF04800353AFFB9000031283
:1002860008B0FED394027480948040037F0222EE6D
:10029600FF7E0064017003538EFBEF4E7003438EA6
:1002A60004EF64024E7005438E088003538EF79068
:1002B60000041208B064017005438F048003538F55
:1002C600FB9000051208EFE5F0F5D6900005120840
:1002D600EFF5D79000071208B064017003438E1043
:1002E6007F0022ED6403707C53D1F7900002120860
:1002F600B06401700543AF20800353AFDF90000365
:100306001208B0FED394027480948040037F0222C8
:10031600EEFF7E006401700353D1FDEF4E70034380
:10032600D102EF64024E700543D104800353D1FB22
:100336009000041208B06401700543D10180035394
:10034600D1FE9000051208EFE5F0F5D490000512F5
:1003560008EFF5D59000071208B06401700343D189
:10036600087F0022ED640460030203F453D17F90FA
:1003760000021208B06401700543AF40800353AF1A
:10038600BF9000031208B0FD7C00D39402748094E1
:100396008040037F0222ED64014C700353D1DF904D
:1003A60000031208B0700343D1209000031208B076
:1003B6006402700543D140800353D1BF90000412FC
:1003C60008B06401700543D110800353D1EF90004B
:1003D600051208EFFDACF0ECF5D2AF058FD3900017
:1003E600071208B06401700343D1807F00227F02A8
:0103F60022E4
:03000000020BDA16
:0C0BDA00787FE4F6D8FD75812C02066ED1
:10089700BB010689828A83E0225002E722BBFE025F
:0908A700E32289828A83E4932292
:1008B000BB010CE58229F582E5833AF583E02250FD
:1008C00006E92582F8E622BBFE06E92582F8E22247
:0D08D000E58229F582E5833AF583E4932261
:1008DD00BB010689828A83F0225002F722BBFE01FA
:0208ED00F322F4
:1008EF00BB0110E58229F582E5833AF583E0F5F047
:1008FF00A3E0225009E92582F886F008E622BBFE24
:10090F000AE92582F8E2F5F008E222E5832AF58369
:08091F00E993F5F0A3E993222E
:00000001FF
