:1002950073746172747570006865616C7468790057
:1002A50074696D656F7574006D6F6E69746F72201A
:1002B50073746174653D002065646765733D002056
:1002C5006167655F6D733D00205035343D002050FA
:1002D50035353D00206F75747075743D68696768C4
:1002E5002D7A0D0A000D0A5354433847314B3038E7
:1002F500206D6F6E69746F72206669726D776172B9
:10030500650D0A005035343D4350555F434845431C
:100315004B20494E54322066616C6C696E672065CE
:100325006467650D0A005035353D41502D524553E2
:10033500455420686967682D7A2C205744543D4FF1
:1003450046462C206F75747075742D6472697665D8
:100355003D4F46460D0A0067726163653D31303099
:1003650030306D732074696D656F75743D31303053
:06037500306D730D0A005B
:10066F005389FC438E80758CA2758A40C28DD2A9A6
:03067F00D28C22F8
:10000E0053A23F759840C299E475138F7512FDF592
:10001E0011F510C28E538EFE5389BF5389CF438E76
:10002E0040AF13AE12AD11AC1078081202448F8D92
:0A003E0085138BC2AB538FFDD28EE9
:010048002295
:10063D0043C93053CACF43C83043B10153B2FE53FF
:09064D00B1FD43B20243B00222E8
:080003008F993099FDC299228A
:1005FD008B218A228923AB21AA22A92312014C60C7
:10060D00130523E5237002052214F912014CFF1284
:05061D00000380E22251
:0804B7008F248E238D228C217D
:1004BF00E4F52FFFFEFDFCAB24AA23A922A821C33C
:1004CF0012023370057F30020003E4FFFEFDFCAB28
:1004DF0024AA23A922A821C31202336041E52FC306
:1004EF00940A503AE47B0AFAF9F8AF24AE23AD220E
:1004FF00AC211201A1EB2430FFAE2F052F74252E56
:10050F00F8A607AF24AE23AD22AC21E47B0AFAF99B
:10051F00F81201A18F248E238D228C2180ACE52F20
:10052F00600E152F7425252FF8E6FF12000380EEBD
:01053F002299
:10062200A2AFE433C2AFAF33AE32AD31AC308F13D1
:0A0632008E128D118C1024FF92AF80
:01063C00229B
:0605C4008B218A2289232D
:1005CA00A2AFE433F527C2AFAF33AE32AD31AC30B0
:1005DA00AB24AA25A926120257A823AC22AD217B57
:1005EA00007A0079347E007F0D120126E52724FF68
:0205FA0092AFBE
:0105FC0022DC
:10065600EF70077BFF7A027995227BFFBF01057A4F
:0906660002799D227A0279A52295
:10037B0075240075250075261D7B007A00791012F7
:10038B0005C47B007A007910E4750010750027F521
:10039B0000F5007500E8750003F500F500AF20AE21
:1003AB001FAD1EAC1D120000AE077BFF7A0279ADAC
:1003BB001205FDAF061206561205FD7BFF7A027978
:1003CB00BC1205FD7B007A0079101200001204B7F5
:1003DB007BFF7A0279C41205FD7B007A007910AF9E
:1003EB0020AE1FAD1EAC1D1200001204B77BFF7AAE
:1003FB000279CD1205FD30CC047F3180027F3012A3
:10040B0000037BFF7A0279D31205FD30CD047F31D7
:10041B0080027F301200037BFF7A0279D90205FD3F
:03000B0002058962
:10058900C0E0C0D075D000C004C005C006C0077562
:100599008CA2758A40AF33AE32AD31AC30EF240155
:1005A900F533E43EF532E43DF531E43CF530D0076E
:0B05B900D006D005D004D0D0D0E03236
:0300530002054063
:10054000C0E0C0F0C083C082C0D075D000C000C081
:1005500001C002C003C004C005C006C0077B007A0A
:10056000007934AF33AE32AD31AC30120000D00779
:10057000D006D005D004D003D002D001D000D0D016
:09058000D082D083D0F0D0E0322B
:10042B0012063D12000E12066F7B007A0079347FA4
:10043B00007E007D007C00120000438F10D2AF7B4A
:10044B00FF7A0279EA1205FD7BFF7A03790912051F
:10045B00FD7BFF7A03792B1205FD7BFF7A03795C19
:0E046B001205FD1206228F0B8E0A8D098C08D9
:100479001206228F0F8E0E8D0D8C0CC3E50F950B76
:10048900FFE50E950AFEE50D9509FDE50C9508FCBD
:10049900E47BE87A03F9F8D312023350D3850F0BC2
:0C04A900850E0A850D09850C0812037BE6
:0204B50080C203
:0300000002068273
:0C068200787FE4F6D8FD75814002042B5F
:10005600E709F608DFFA8046E709F208DFFA803E8C
:1000660088828C83E709F0A3DFFA8032E309F60879
:10007600DFFA8078E309F208DFFA807088828C83E1
:10008600E309F0A3DFFA806489828A83E0A3F60895
:10009600DFFA805889828A83E0A3F208DFFA804C6F
:1000A60080D280FA80C680D4806980F28033801046
:1000B60080A680EA809A80A880DA80E280CA8033AF
:1000C60089828A83ECFAE493A3C8C582C8CCC58327
:1000D600CCF0A3C8C582C8CCC583CCDFE9DEE780F7
:1000E6000D89828A83E493A3F608DFF9ECFAA9F076
:1000F600EDFB2289828A83ECFAE0A3C8C582C8CCCC
:10010600C583CCF0A3C8C582C8CCC583CCDFEADEE4
:10011600E880DB89828A83E493A3F208DFF980CC46
:1001260088F0EF60010E4E60C388F0ED2402B4043F
:100136000050B9F582EB2402B4040050AF232345E6
:0601460082239000A67365
:10014C00BB010689828A83E0225002E722BBFE02B1
:09015C00E32289828A83E49322E4
:1001650075F008758200EF2FFFEE33FECD33CDCC51
:1001750033CCC58233C5829BED9AEC99E5829840D4
:100185000CF582EE9BFEED9AFDEC99FC0FD5F0D6B1
:10019500E4CEFBE4CDFAE4CCF9A88222B800C1B9DB
:1001A5000059BA002DEC8BF084CFCECDFCE5F0CB19
:1001B500F97818EF2FFFEE33FEED33FDEC33FCEB52
:1001C50033FB10D703994004EB99FB0FD8E5E4F90D
:1001D500FA227818EF2FFFEE33FEED33FDEC33FCFA
:1001E500C933C910D7059BE99A4007EC9BFCE99AEE
:1001F500F90FD8E0E4C9FAE4CCFB2275F010EF2F33
:10020500FFEE33FEED33FDCC33CCC833C810D70732
:100215009BEC9AE899400AED9BFDEC9AFCE899F86D
:0E0225000FD5F0DAE4CDFBE4CCFAE4C8F92200
:10023300EB9FF5F0EA9E42F0E99D42F0E89C45F021
:010243002298
:10024400E8600FECC313FCED13FDEE13FEEF13FF98
:03025400D8F122BC
:10025700BB010789828A8302027D5005E9F8020201
:0A02670071BBFE05E9F802028922CE
:0C027100ECF608EDF608EEF608EFF622B9
:0C027D00ECF0A3EDF0A3EEF0A3EFF022F4
:0C028900ECF208EDF208EEF208EFF222B1
:00000001FF
