:1003D700EFD394077480948040037F01221206E0D4
:1003E700FED394037480948040037F0222EF70440D
:1003F700EE700B9000011206F9F452935294120614
:10040700E06401700B9000011206F94293F45294D4
:100417001206E0FE6402700A9000011206F9429388
:100427004294EE6403700D9000011206F9FEF45237
:1004370093EE4294EF640170461206E0FE700B9053
:1004470000011206F9F452915292EE6401700B907A
:1004570000011206F94291F452921206E06402700A
:100467000A9000011206F9429142921206E06403D3
:10047700700D9000011206F9FEF45291EE4292EFD0
:10048700640270461206E0FE700B9000011206F936
:10049700F452955296EE6401700B9000011206F922
:1004A7004295F452961206E06402700A9000011217
:1004B70006F9429542961206E06403700D9000011A
:1004C7001206F9FEF45295EE4296EF640370461257
:1004D70006E0FE700B9000011206F9F452B152B219
:1004E700EE6401700B9000011206F942B1F452B2AA
:1004F7001206E06402700A9000011206F942B14246
:10050700B21206E06403700D9000011206F9FEF4C2
:1005170052B1EE42B2EF640470461206E0FE700B71
:100527009000011206F9F452B352B4EE6401700B55
:100537009000011206F942B3F452B41206E06402C5
:10054700700A9000011206F942B342B41206E06441
:1005570003700D9000011206F9FEF452B3EE42B497
:10056700EF640570461206E0FE700B90000112065C
:10057700F9F452C952CAEE6401700B9000011206D9
:10058700F942C9F452CA1206E06402700A900001E7
:100597001206F942C942CA1206E06403700D9000C0
:1005A700011206F9FEF452C9EE42CAEF640670461C
:1005B7001206E0FE700B9000011206F9F452CB52BE
:1005C700CCEE6401700B9000011206F942CBF45295
:1005D700CC1206E06402700A9000011206F942CBC1
:1005E70042CC1206E06403700D9000011206F9FE7A
:1005F700F452CBEE42CCEF640770491206E0FF7E5F
:1006070000700B9000011206F9F452E152E2EF6418
:10061700014E700B9000011206F942E1F452E2120A
:1006270006E06402700A9000011206F942E142E214
:100637001206E06403700D9000011206F9FFF452F0
:07064700E1EF42E27F002217
:10001E00750901E4F508FB7A0079087F041203D70D
:10002E007509FFE4F508FB7A0079087F060203D70D
:10064E00E4F508F509750A01F50BF50C750DFF7546
:10065E000E10750F01FB7A007908FF1200A6E4F563
:10066E0008F509750A01F50BF50C750DF6750EA05A
:10067E00750F01FB7A0079087F011200A6750A0139
:10068E00E4F50BF50C750DA2750E40750F01FB7A96
:10069E000079087F021200A6750A01750B01750C10
:1006AE0001750DB1750EE0750F017B007A007908AA
:1006BE007F031200A6750A01750B01750C01750DED
:1006CE0063750EC0750F017B007A0079087F0402F6
:0206DE0000A674
:0C000E0012001E12064ED2AFC2C080FECF
:03000B00020003ED
:03000300B2EF3227
:03001B00020006DA
:03000600B2EE3225
:0300630002004A4E
:03004A00B2ED32E2
:03009B0002004D13
:03004D00B2EC32E0
:0300A30002005008
:03005000B2EB32DE
:1000A600AD07EDD394047480948040037F0122ED64
:1000B600600302017BC28C9000021206F964017093
:1000C60004D2A98002C2A99000011206F9FED394B7
:1000D600037480948040037F0222EEFF7E00700549
:1000E60053B7FDC2B9EF64014E700553B7FDD2B9DF
:1000F600EF64024E700543B702C2B9EF64034E7057
:100106000543B702D2B91206E0FEC3940374809485
:100116008040037F0222E58954FC4EF58990000356
:100126001206F9FF7E0064017003538E7FEF4E7056
:1001360003438E80EF64024E7005438904800353A7
:1001460089FB9000041206F964017005438F018053
:1001560003538FFE900005120726E5F0F58C9000FC
:1001660005120726F58A9000071206F96401700247
:10017600D28C7F0022ED64016003020248C28E9099
:1001860000021206F964017004D2AB8002C2AB9081
:1001960000011206F9FED394037480948040037F15
:1001A6000222EEFF7E00700553B7F7C2BBEF640173
:1001B6004E700553B7F7D2BBEF64024E700543B7D6
:1001C60008C2BBEF64034E700543B708D2BB1206E4
:1001D600E0FEC394037480948040037F0222EEC441
:1001E60054F0FFE58954CF4FF5899000031206F9C4
:1001F600FF7E0064017003538EBFEF4E7003438E83
:1002060040EF64024E700543894080035389BF90D6
:1002160000041206F964017005438F028003538FB0
:10022600FD900005120726E5F0F58D9000051207F2
:1002360026F58B9000071206F964017002D28E7FB4
:100246000022ED6402707C538EEF9000021206F9D4
:100256006401700543AF04800353AFFB90000312A3
:1002660006F9FED394027480948040037F0222EE46
:10027600FF7E0064017003538EFBEF4E7003438EC6
:1002860004EF64024E7005438E088003538EF79088
:1002960000041206F964017005438F048003538F2E
:1002A600FB900005120726E5F0F5D690000512072B
:1002B60026F5D79000071206F964017003438E10E5
:1002C6007F0022ED6403707C53D1F7900002120682
:1002D600F96401700543AF20800353AFDF9000033C
:1002E6001206F9FED394027480948040037F0222A2
:1002F600EEFF7E006401700353D1FDEF4E700343A1
:10030600D102EF64024E700543D104800353D1FB42
:100316009000041206F96401700543D1018003536D
:10032600D1FE900005120726E5F0F5D490000512DF
:100336000726F5D59000071206F96401700343D12C
:10034600087F0022ED640460030203D453D17F903A
:1003560000021206F96401700543AF40800353AFF3
:10036600BF9000031206F9FD7C00D39402748094BA
:100376008040037F0222ED64014C700353D1DF906D
:1003860000031206F9700343D1209000031206F908
:100396006402700543D140800353D1BF900004121C
:1003A60006F96401700543D110800353D1EF900024
:1003B60005120726FDACF0ECF5D2AF058FD3900001
:1003C600071206F96401700343D1807F00227F0281
:0103D6002204
:0300000002003EBD
:0C003E00787FE4F6D8FD75810F02000EFB
:1006E000BB010689828A83E0225002E722BBFE0218
:0906F000E32289828A83E493224B
:1006F900BB010CE58229F582E5833AF583E02250B6
:1007090006E92582F8E622BBFE06E92582F8E222FF
:0D071900E58229F582E5833AF583E4932219
:10072600BB0110E58229F582E5833AF583E0F5F011
:10073600A3E0225009E92582F886F008E622BBFEEE
:100746000AE92582F8E2F5F008E222E5832AF58334
:08075600E993F5F0A3E99322F9
:00000001FF
