:07000000020ACD3232323258
:10000B000209F6120AC1C281120AC8C280020AC8CA
:10001B00020003752203E4F521FB7A007921FF121C
:10002B0003F7752208E4F521FB7A0079217F03128F
:10003B0003F77522FFE4F521FB7A0079217F061285
:10004B0003F77522FFE4F521FB7A0079217F070284
:02005B0003F7A9
:10006300020004120AAB20D522AF041200A6120A22
:10007300B520D51712078DFF1200A6740129F9E4E4
:100083003AFA120AB520D503D525E9020091C281B7
:0B009300120AC3D281020AC802000555
:1000A300020006AE077D08EE30E704D2818002C26B
:1000B30081EE25E0FE120AC3C280120AC8DDE822DF
:1000C300020948AD07EDD394047480948040037F04
:1000D3000122ED600302019BC28C9000021207A66D
:1000E30064017004D2A98002C2A99000011207A67C
:1000F300FED394037480948040037F0222EEFF7E3C
:1001030000700553B7FDC2B9EF64014E700553B7D4
:10011300FDD2B9EF64024E700543B702C2B9EF6472
:10012300034E700543B702D2B912078DFEC3940381
:100133007480948040037F0222E58954FC4EF58944
:100143009000031207A6FF7E0064017003538E7FA5
:10015300EF4E7003438E80EF64024E7005438904B3
:1001630080035389FB9000041207A66401700543C2
:100173008F018003538FFE90000512083AE5F0F5D6
:100183008C90000512083AF58A9000071207A664BE
:10019300017002D28C7F0022ED64016003020268C9
:1001A300C28E9000021207A664017004D2AB8002D3
:1001B300C2AB9000011207A6FED39403748094800F
:1001C30040037F0222EEFF7E00700553B7F7C2BBE8
:1001D300EF64014E700553B7F7D2BBEF64024E7064
:1001E3000543B708C2BBEF64034E700543B708D29B
:1001F300BB12078DFEC394037480948040037F0277
:1002030022EEC454F0FFE58954CF4FF589900003E3
:100213001207A6FF7E0064017003538EBFEF4E707A
:1002230003438E40EF64024E7005438940800353BD
:1002330089BF9000041207A664017005438F0280F2
:1002430003538FFD90000512083AE5F0F58D9000F9
:100253000512083AF58B9000071207A66401700295
:10026300D28E7F0022ED6402707C538EEF900002E9
:100273001207A66401700543AF04800353AFFB90DC
:1002830000031207A6FED394027480948040037F78
:100293000222EEFF7E0064017003538EFBEF4E706B
:1002A30003438E04EF64024E7005438E08800353AC
:1002B3008EF79000041207A664017005438F048033
:1002C30003538FFB90000512083AE5F0F5D6900032
:1002D3000512083AF5D79000071207A664017003C8
:1002E300438E107F0022ED6403707C53D1F790009E
:1002F300021207A66401700543AF20800353AFDFEA
:100303009000031207A6FED39402748094804003E6
:100313007F0222EEFF7E006401700353D1FDEF4E96
:10032300700343D102EF64024E700543D10480038E
:1003330053D1FB9000041207A66401700543D10159
:10034300800353D1FE90000512083AE5F0F5D490EE
:10035300000512083AF5D59000071207A66401704C
:100363000343D1087F0022ED640460030203F453C6
:10037300D17F9000021207A66401700543AF40804D
:100383000353AFBF9000031207A6FD7C00D3940272
:100393007480948040037F0222ED64014C70035308
:1003A300D1DF9000031207A6700343D1209000030E
:1003B3001207A66402700543D140800353D1BF9056
:1003C30000041207A66401700543D110800353D1C2
:1003D300EF90000512083AFDACF0ECF5D2AF058FB3
:1003E300D39000071207A66401700343D1807F00F6
:1003F300227F0222EFD394077480948040037F010D
:100403002212078DFED394037480948040037F02ED
:1004130022EF7044EE700B9000011207A6F4529382
:10042300529412078D6401700B9000011207A642CB
:1004330093F4529412078DFE6402700A9000011225
:1004430007A642934294EE6403700D9000011207D5
:10045300A6FEF45293EE4294EF6401704612078DA8
:10046300FE700B9000011207A6F452915292EE64B3
:1004730001700B9000011207A64291F452921207E9
:100483008D6402700A9000011207A64291429212F3
:10049300078D6403700D9000011207A6FEF45291BC
:1004A300EE4292EF6402704612078DFE700B9000CD
:1004B300011207A6F452955296EE6401700B900058
:1004C300011207A64295F4529612078D6402700A30
:1004D3009000011207A64295429612078D6403709D
:1004E3000D9000011207A6FEF45295EE4296EF64BA
:1004F30003704612078DFE700B9000011207A6F4DD
:1005030052B152B2EE6401700B9000011207A64281
:10051300B1F452B212078D6402700A9000011207FF
:10052300A642B142B212078D6403700D900001120E
:1005330007A6FEF452B1EE42B2EF6404704612070E
:100543008DFE700B9000011207A6F452B352B4EE65
:100553006401700B9000011207A642B3F452B41267
:10056300078D6402700A9000011207A642B342B4D9
:1005730012078D6403700D9000011207A6FEF4525A
:10058300B3EE42B4EF6405704612078DFE700B9014
:1005930000011207A6F452C952CAEE6401700B900F
:1005A30000011207A642C9F452CA12078D640270F1
:1005B3000A9000011207A642C942CA12078D6403BA
:1005C300700D9000011207A6FEF452C9EE42CAEF65
:1005D3006406704612078DFE700B9000011207A689
:1005E300F452CB52CCEE6401700B9000011207A6BB
:1005F30042CBF452CC12078D6402700A90000112B0
:1006030007A642CB42CC12078D6403700D90000104
:100613001207A6FEF452CBEE42CCEF6407704912E8
:10062300078DFF7E00700B9000011207A6F452E1C4
:1006330052E2EF64014E700B9000011207A642E1F3
:10064300F452E212078D6402700A9000011207A6A9
:1006530042E142E212078D6403700D90000112071C
:10066300A6FFF452E1EF42E27F002243BA809000FA
:10067300011207A66401704590FE80E04440F090AB
:10068300FE82E4F09000021207A690FE817006E05D
:10069300547FF08004E04480F09000041207A654D5
:1006A3003FFF90FE80E054C04FF09000031207A676
:1006B300640190FE88700302074C02074690FE8097
:1006C300E054BFF090FE84E4F09000051207A664A6
:1006D3000190FE837006E04440F08004E054BFF0D4
:1006E3009000061207A6640190FE837006E0442082
:1006F300F08004E054DFF09000071207A664019035
:10070300FE837006E04410F08004E054EFF09000A4
:10071300081207A6640190FE837006E04408F08087
:1007230004E054F7F09000091207A625E0FF90FEBD
:1007330085E054014FF090000A1207A6640190FE71
:10074300857006E054FEF08004E04401F090000B55
:100753001207A6FFE5BA54CF4FF5BA12078D90FEE4
:10076300807006E0547FF08004E04480F0751A0145
:10077300751901E4F51B7400251BF582E43400F5BB
:1007830083E090FE86F053BA7F22BB010689828AFA
:1007930083E0225002E722BBFE02E32289828A839E
:1007A300E49322BB010CE58229F582E5833AF583C4
:1007B300E0225006E92582F8E622BBFE06E92582FF
:1007C300F8E222E58229F582E5833AF583E4932270
:1007D300BB010689828A83F0225002F722BBFE0105
:1007E300F322BC000BBE0029EF8DF084FFADF02295
:1007F300E4CCF875F008EF2FFFEE33FEEC33FCEE9C
:100803009DEC984005FCEE9DFE0FD5F0E9E4CEFD8E
:1008130022EDF8F5F0EE8420D21CFEADF075F00861
:10082300EF2FFFED33FD4007985006D5F0F222C3BA
:1008330098FD0FD5F0EA22BB0110E58229F582E588
:10084300833AF583E0F5F0A3E0225009E92582F825
:1008530086F008E622BBFE0AE92582F8E2F5F008F5
:10086300E222E5832AF583E993F5F0A3E9932212C3
:10087300001E120A8D120A6AD2AFE4F518C201FFF4
:10088300EFC39408748094805009740A2FF876108B
:100893000F80ED300114C201900000E0F50EA3E0DB
:1008A300F50FA3E0F510A3E0F5113000E6C2000553
:1008B30017E51770020516C394E8E516940340D3B1
:1008C300E4F516F5170509E509700205089410E526
:1008D3000894274005E4F508F509AE08AF097C0341
:1008E3007DE81207E58F12AE08AF097C037DE8129D
:1008F30007E57E007F64CFCDCFCECCCE1207E58F48
:1009030013AE08AF097C007D641207E57E007F0A01
:10091300CFCDCFCECCCE1207E58F14AE08AF097C76
:10092300007D0A1207E58D1585120A85130B8514C0
:100933000C85150D7B007A007912752504E4FF12EE
:100943000066020896C0E0C083C082C0D075D000A4
:10095300C005C006C007AFBA43BA8090FE84E0303A
:10096300E606E054BFF0807A90FE84E030E535E09F
:1009730054DFF0E51A6005751A008066E519600D0D
:1009830075190090FE87E0F51B2400803490FE87E4
:10099300E0FEAD1B051B74002DF582E43400F583E6
:1009A300EEF0803E90FE84E030E424E054EFF0E08B
:1009B30030E10890FE8674FFF08027051B74002544
:1009C3001BF582E43400F583E090FE86F0801390FB
:1009D300FE84E030E30CE054F7F0751A0175190159
:1009E300D2018FBAD007D006D005D0D0D082D08321
:1009F300D0E032C0E0C0F0C083C082C0D075D00068
:100A0300C000C001C002C003C004C005C006C007C7
:100A1300120A33D200D007D006D005D004D003D0B9
:100A230002D001D000D0D0D082D083D0F0D0E03239
:100A3300C374079518FFE49400FE74042FF58274C1
:100A43000B3EF583E493F4F5F8740A2518F8E69061
:100A53000AD993F4F5E80518C3E51894087480944B
:100A6300804003E4F51822E4F5227521017526017F
:100A7300752701752801752901752B01752A2D75B7
:100A83002C30FB7A00792102066EE4F521F52275FC
:100A93002301F524F5257526A2752740752801FB4A
:100AA3007A007921FF0200C6AC0712000E7F5A12AA
:100AB30000A6120AC1A28192D5C280020AC8D281BD
:100AC300120AC8D2807F0CDFFE22787FE4F6D8FDBD
:100AD30075812C0208723F065B4F666D7D077F6F41
:100AE300777C395E79710040761E7038375C733ECF
:100AF300783D6750376EBF86DBCFE6EDFD87FFEFAE
:090B0300460102040810204080A4
:00000001FF
